{
  "_format": "hh-sol-artifact-1",
  "contractName": "SocialNetwork",
  "sourceName": "contracts/SocialNetwork.sol",
  "abi": [
    {
      "anonymous": false,
      "inputs": [
        {
          "indexed": true,
          "internalType": "address",
          "name": "previousOwner",
          "type": "address"
        },
        {
          "indexed": true,
          "internalType": "address",
          "name": "newOwner",
          "type": "address"
        }
      ],
      "name": "OwnershipTransferred",
      "type": "event"
    },
    {
      "anonymous": false,
      "inputs": [
        {
          "indexed": false,
          "internalType": "uint256",
          "name": "postID",
          "type": "uint256"
        },
        {
          "indexed": true,
          "internalType": "address",
          "name": "owner",
          "type": "address"
        },
        {
          "indexed": false,
          "internalType": "string",
          "name": "text",
          "type": "string"
        }
      ],
      "name": "PostCreated",
      "type": "event"
    },
    {
      "anonymous": false,
      "inputs": [
        {
          "indexed": false,
          "internalType": "uint256",
          "name": "postID",
          "type": "uint256"
        }
      ],
      "name": "PostDeleted",
      "type": "event"
    },
    {
      "anonymous": false,
      "inputs": [
        {
          "indexed": false,
          "internalType": "uint256",
          "name": "postID",
          "type": "uint256"
        },
        {
          "indexed": false,
          "internalType": "uint256",
          "name": "sponsorAmount",
          "type": "uint256"
        },
        {
          "indexed": true,
          "internalType": "address",
          "name": "sponsor",
          "type": "address"
        }
      ],
      "name": "PostSponsored",
      "type": "event"
    },
    {
      "inputs": [
        {
          "internalType": "string",
          "name": "text",
          "type": "string"
        }
      ],
      "name": "createPost",
      "outputs": [],
      "stateMutability": "nonpayable",
      "type": "function"
    },
    {
      "inputs": [
        {
          "internalType": "uint256",
          "name": "postID",
          "type": "uint256"
        }
      ],
      "name": "deletePost",
      "outputs": [],
      "stateMutability": "nonpayable",
      "type": "function"
    },
    {
      "inputs": [
        {
          "internalType": "uint256",
          "name": "start",
          "type": "uint256"
        },
        {
          "internalType": "uint256",
          "name": "numOfPosts",
          "type": "uint256"
        }
      ],
      "name": "fetchPostsRanged",
      "outputs": [
        {
          "components": [
            {
              "internalType": "uint256",
              "name": "timestamp",
              "type": "uint256"
            },
            {
              "internalType": "address",
              "name": "owner",
              "type": "address"
            },
            {
              "internalType": "string",
              "name": "text",
              "type": "string"
            }
          ],
          "internalType": "struct ISocialNetwork.Post[]",
          "name": "",
          "type": "tuple[]"
        }
      ],
      "stateMutability": "view",
      "type": "function"
    },
    {
      "inputs": [],
      "name": "getLatestPostID",
      "outputs": [
        {
          "internalType": "uint256",
          "name": "",
          "type": "uint256"
        }
      ],
      "stateMutability": "view",
      "type": "function"
    },
    {
      "inputs": [
        {
          "internalType": "uint256",
          "name": "postID",
          "type": "uint256"
        }
      ],
      "name": "getPost",
      "outputs": [
        {
          "components": [
            {
              "internalType": "uint256",
              "name": "timestamp",
              "type": "uint256"
            },
            {
              "internalType": "address",
              "name": "owner",
              "type": "address"
            },
            {
              "internalType": "string",
              "name": "text",
              "type": "string"
            }
          ],
          "internalType": "struct ISocialNetwork.Post",
          "name": "",
          "type": "tuple"
        }
      ],
      "stateMutability": "view",
      "type": "function"
    },
    {
      "inputs": [],
      "name": "owner",
      "outputs": [
        {
          "internalType": "address",
          "name": "",
          "type": "address"
        }
      ],
      "stateMutability": "view",
      "type": "function"
    },
    {
      "inputs": [
        {
          "internalType": "uint256",
          "name": "",
          "type": "uint256"
        }
      ],
      "name": "posts",
      "outputs": [
        {
          "internalType": "uint256",
          "name": "timestamp",
          "type": "uint256"
        },
        {
          "internalType": "address",
          "name": "owner",
          "type": "address"
        },
        {
          "internalType": "string",
          "name": "text",
          "type": "string"
        }
      ],
      "stateMutability": "view",
      "type": "function"
    },
    {
      "inputs": [],
      "name": "renounceOwnership",
      "outputs": [],
      "stateMutability": "nonpayable",
      "type": "function"
    },
    {
      "inputs": [
        {
          "internalType": "uint256",
          "name": "postID",
          "type": "uint256"
        }
      ],
      "name": "sponsorPost",
      "outputs": [],
      "stateMutability": "payable",
      "type": "function"
    },
    {
      "inputs": [
        {
          "internalType": "address",
          "name": "newOwner",
          "type": "address"
        }
      ],
      "name": "transferOwnership",
      "outputs": [],
      "stateMutability": "nonpayable",
      "type": "function"
    }
  ],
  "bytecode": "0x608060405234801561001057600080fd5b5061002d61002261003260201b60201c565b61003a60201b60201c565b6100fe565b600033905090565b60008060009054906101000a900473ffffffffffffffffffffffffffffffffffffffff169050816000806101000a81548173ffffffffffffffffffffffffffffffffffffffff021916908373ffffffffffffffffffffffffffffffffffffffff1602179055508173ffffffffffffffffffffffffffffffffffffffff168173ffffffffffffffffffffffffffffffffffffffff167f8be0079c531659141344cd1fd0a4f28419497f9722a3daafe3b4186f6b6457e060405160405180910390a35050565b611f848061010d6000396000f3fe6080604052600436106100915760003560e01c80638da5cb5b116100595780638da5cb5b1461016e5780638dd75f9614610199578063c7303c61146101d6578063ccde6752146101ff578063f2fde38b1461022a57610091565b8063094cd5ee146100965780630b1e7f83146100bf57806340731c24146100fe5780636dc754e81461013b578063715018a614610157575b600080fd5b3480156100a257600080fd5b506100bd60048036038101906100b891906112cb565b610253565b005b3480156100cb57600080fd5b506100e660048036038101906100e191906112cb565b610479565b6040516100f593929190611857565b60405180910390f35b34801561010a57600080fd5b50610125600480360381019061012091906112cb565b61054b565b604051610132919061181a565b60405180910390f35b610155600480360381019061015091906112cb565b61075d565b005b34801561016357600080fd5b5061016c610a74565b005b34801561017a57600080fd5b50610183610a88565b604051610190919061169d565b60405180910390f35b3480156101a557600080fd5b506101c060048036038101906101bb91906112f4565b610ab1565b6040516101cd91906116b8565b60405180910390f35b3480156101e257600080fd5b506101fd60048036038101906101f8919061128a565b610d41565b005b34801561020b57600080fd5b50610214610ea6565b604051610221919061183c565b60405180910390f35b34801561023657600080fd5b50610251600480360381019061024c9190611261565b610ec3565b005b8061025e6001610f47565b811061029f576040517f08c379a0000000000000000000000000000000000000000000000000000000008152600401610296906117da565b60405180910390fd5b600073ffffffffffffffffffffffffffffffffffffffff166002600083815260200190815260200160002060010160009054906101000a900473ffffffffffffffffffffffffffffffffffffffff1673ffffffffffffffffffffffffffffffffffffffff161415610345576040517f08c379a000000000000000000000000000000000000000000000000000000000815260040161033c906116fa565b60405180910390fd5b3373ffffffffffffffffffffffffffffffffffffffff166002600084815260200190815260200160002060010160009054906101000a900473ffffffffffffffffffffffffffffffffffffffff1673ffffffffffffffffffffffffffffffffffffffff16146103e9576040517f08c379a00000000000000000000000000000000000000000000000000000000081526004016103e09061179a565b60405180910390fd5b600260008381526020019081526020016000206000808201600090556001820160006101000a81549073ffffffffffffffffffffffffffffffffffffffff021916905560028201600061043c91906110b5565b50507f32d67e2131cd025eb20e7256680e338dedbe17b28943a11681860a9271ad119d8260405161046d919061183c565b60405180910390a15050565b60026020528060005260406000206000915090508060000154908060010160009054906101000a900473ffffffffffffffffffffffffffffffffffffffff16908060020180546104c890611abd565b80601f01602080910402602001604051908101604052809291908181526020018280546104f490611abd565b80156105415780601f1061051657610100808354040283529160200191610541565b820191906000526020600020905b81548152906001019060200180831161052457829003601f168201915b5050505050905083565b6105536110f5565b8161055e6001610f47565b811061059f576040517f08c379a0000000000000000000000000000000000000000000000000000000008152600401610596906117da565b60405180910390fd5b600073ffffffffffffffffffffffffffffffffffffffff166002600083815260200190815260200160002060010160009054906101000a900473ffffffffffffffffffffffffffffffffffffffff1673ffffffffffffffffffffffffffffffffffffffff161415610645576040517f08c379a000000000000000000000000000000000000000000000000000000000815260040161063c906116fa565b60405180910390fd5b60026000848152602001908152602001600020604051806060016040529081600082015481526020016001820160009054906101000a900473ffffffffffffffffffffffffffffffffffffffff1673ffffffffffffffffffffffffffffffffffffffff1673ffffffffffffffffffffffffffffffffffffffff1681526020016002820180546106d390611abd565b80601f01602080910402602001604051908101604052809291908181526020018280546106ff90611abd565b801561074c5780601f106107215761010080835404028352916020019161074c565b820191906000526020600020905b81548152906001019060200180831161072f57829003601f168201915b505050505081525050915050919050565b806107686001610f47565b81106107a9576040517f08c379a00000000000000000000000000000000000000000000000000000000081526004016107a0906117da565b60405180910390fd5b600073ffffffffffffffffffffffffffffffffffffffff166002600083815260200190815260200160002060010160009054906101000a900473ffffffffffffffffffffffffffffffffffffffff1673ffffffffffffffffffffffffffffffffffffffff16141561084f576040517f08c379a0000000000000000000000000000000000000000000000000000000008152600401610846906116fa565b60405180910390fd5b3373ffffffffffffffffffffffffffffffffffffffff166002600084815260200190815260200160002060010160009054906101000a900473ffffffffffffffffffffffffffffffffffffffff1673ffffffffffffffffffffffffffffffffffffffff1614156108f4576040517f08c379a00000000000000000000000000000000000000000000000000000000081526004016108eb906116da565b60405180910390fd5b60003411610937576040517f08c379a000000000000000000000000000000000000000000000000000000000815260040161092e9061175a565b60405180910390fd5b60006002600084815260200190815260200160002060010160009054906101000a900473ffffffffffffffffffffffffffffffffffffffff16905060008173ffffffffffffffffffffffffffffffffffffffff163460405161099890611688565b60006040518083038185875af1925050503d80600081146109d5576040519150601f19603f3d011682016040523d82523d6000602084013e6109da565b606091505b5050905080610a1e576040517f08c379a0000000000000000000000000000000000000000000000000000000008152600401610a159061177a565b60405180910390fd5b3373ffffffffffffffffffffffffffffffffffffffff167fad56ac73f650e1f8a979cb46066677ca35da8c3fb481a6d77440b8413c8c814b8534604051610a669291906118c5565b60405180910390a250505050565b610a7c610f55565b610a866000610fd3565b565b60008060009054906101000a900473ffffffffffffffffffffffffffffffffffffffff16905090565b60606000610abf6001610f47565b9050808410610b03576040517f08c379a0000000000000000000000000000000000000000000000000000000008152600401610afa9061171a565b60405180910390fd5b60008385610b1191906119b5565b9050600081831115610b235781610b25565b825b915060008683610b359190611a0b565b67ffffffffffffffff811115610b74577f4e487b7100000000000000000000000000000000000000000000000000000000600052604160045260246000fd5b604051908082528060200260200182016040528015610bad57816020015b610b9a6110f5565b815260200190600190039081610b925790505b50905060008790505b83811015610d335760026000828152602001908152602001600020604051806060016040529081600082015481526020016001820160009054906101000a900473ffffffffffffffffffffffffffffffffffffffff1673ffffffffffffffffffffffffffffffffffffffff1673ffffffffffffffffffffffffffffffffffffffff168152602001600282018054610c4c90611abd565b80601f0160208091040260200160405190810160405280929190818152602001828054610c7890611abd565b8015610cc55780601f10610c9a57610100808354040283529160200191610cc5565b820191906000526020600020905b815481529060010190602001808311610ca857829003601f168201915b505050505081525050828481518110610d07577f4e487b7100000000000000000000000000000000000000000000000000000000600052603260045260246000fd5b60200260200101819052508280610d1d90611b20565b9350508080610d2b90611b20565b915050610bb6565b508094505050505092915050565b6000815111610d85576040517f08c379a0000000000000000000000000000000000000000000000000000000008152600401610d7c906117fa565b60405180910390fd5b6000610d916001610f47565b905060405180606001604052804281526020013373ffffffffffffffffffffffffffffffffffffffff16815260200183815250600260008381526020019081526020016000206000820151816000015560208201518160010160006101000a81548173ffffffffffffffffffffffffffffffffffffffff021916908373ffffffffffffffffffffffffffffffffffffffff1602179055506040820151816002019080519060200190610e4492919061112c565b509050503373ffffffffffffffffffffffffffffffffffffffff167f8e40a51278abe2f4b410c0a96ff0bdd024b22666ca334062bf72afd596984bd68284604051610e90929190611895565b60405180910390a2610ea26001611097565b5050565b60006001610eb46001610f47565b610ebe9190611a0b565b905090565b610ecb610f55565b600073ffffffffffffffffffffffffffffffffffffffff168173ffffffffffffffffffffffffffffffffffffffff161415610f3b576040517f08c379a0000000000000000000000000000000000000000000000000000000008152600401610f329061173a565b60405180910390fd5b610f4481610fd3565b50565b600081600001549050919050565b610f5d6110ad565b73ffffffffffffffffffffffffffffffffffffffff16610f7b610a88565b73ffffffffffffffffffffffffffffffffffffffff1614610fd1576040517f08c379a0000000000000000000000000000000000000000000000000000000008152600401610fc8906117ba565b60405180910390fd5b565b60008060009054906101000a900473ffffffffffffffffffffffffffffffffffffffff169050816000806101000a81548173ffffffffffffffffffffffffffffffffffffffff021916908373ffffffffffffffffffffffffffffffffffffffff1602179055508173ffffffffffffffffffffffffffffffffffffffff168173ffffffffffffffffffffffffffffffffffffffff167f8be0079c531659141344cd1fd0a4f28419497f9722a3daafe3b4186f6b6457e060405160405180910390a35050565b6001816000016000828254019250508190555050565b600033905090565b5080546110c190611abd565b6000825580601f106110d357506110f2565b601f0160209004906000526020600020908101906110f191906111b2565b5b50565b604051806060016040528060008152602001600073ffffffffffffffffffffffffffffffffffffffff168152602001606081525090565b82805461113890611abd565b90600052602060002090601f01602090048101928261115a57600085556111a1565b82601f1061117357805160ff19168380011785556111a1565b828001600101855582156111a1579182015b828111156111a0578251825591602001919060010190611185565b5b5090506111ae91906111b2565b5090565b5b808211156111cb5760008160009055506001016111b3565b5090565b60006111e26111dd84611913565b6118ee565b9050828152602081018484840111156111fa57600080fd5b611205848285611a7b565b509392505050565b60008135905061121c81611f20565b92915050565b600082601f83011261123357600080fd5b81356112438482602086016111cf565b91505092915050565b60008135905061125b81611f37565b92915050565b60006020828403121561127357600080fd5b60006112818482850161120d565b91505092915050565b60006020828403121561129c57600080fd5b600082013567ffffffffffffffff8111156112b657600080fd5b6112c284828501611222565b91505092915050565b6000602082840312156112dd57600080fd5b60006112eb8482850161124c565b91505092915050565b6000806040838503121561130757600080fd5b60006113158582860161124c565b92505060206113268582860161124c565b9150509250929050565b600061133c83836115ca565b905092915050565b61134d81611a3f565b82525050565b61135c81611a3f565b82525050565b600061136d82611954565b6113778185611977565b93508360208202850161138985611944565b8060005b858110156113c557848403895281516113a68582611330565b94506113b18361196a565b925060208a0199505060018101905061138d565b50829750879550505050505092915050565b60006113e28261195f565b6113ec8185611993565b93506113fc818560208601611a8a565b61140581611bf6565b840191505092915050565b600061141b8261195f565b61142581856119a4565b9350611435818560208601611a8a565b61143e81611bf6565b840191505092915050565b60006114566038836119a4565b915061146182611c07565b604082019050919050565b60006114796032836119a4565b915061148482611c56565b604082019050919050565b600061149c603f836119a4565b91506114a782611ca5565b604082019050919050565b60006114bf6026836119a4565b91506114ca82611cf4565b604082019050919050565b60006114e26041836119a4565b91506114ed82611d43565b606082019050919050565b60006115056039836119a4565b915061151082611db8565b604082019050919050565b60006115286030836119a4565b915061153382611e07565b604082019050919050565b600061154b6020836119a4565b915061155682611e56565b602082019050919050565b600061156e600083611988565b915061157982611e7f565b600082019050919050565b60006115916035836119a4565b915061159c82611e82565b604082019050919050565b60006115b4603a836119a4565b91506115bf82611ed1565b604082019050919050565b60006060830160008301516115e2600086018261166a565b5060208301516115f56020860182611344565b506040830151848203604086015261160d82826113d7565b9150508091505092915050565b6000606083016000830151611632600086018261166a565b5060208301516116456020860182611344565b506040830151848203604086015261165d82826113d7565b9150508091505092915050565b61167381611a71565b82525050565b61168281611a71565b82525050565b600061169382611561565b9150819050919050565b60006020820190506116b26000830184611353565b92915050565b600060208201905081810360008301526116d28184611362565b905092915050565b600060208201905081810360008301526116f381611449565b9050919050565b600060208201905081810360008301526117138161146c565b9050919050565b600060208201905081810360008301526117338161148f565b9050919050565b60006020820190508181036000830152611753816114b2565b9050919050565b60006020820190508181036000830152611773816114d5565b9050919050565b60006020820190508181036000830152611793816114f8565b9050919050565b600060208201905081810360008301526117b38161151b565b9050919050565b600060208201905081810360008301526117d38161153e565b9050919050565b600060208201905081810360008301526117f381611584565b9050919050565b60006020820190508181036000830152611813816115a7565b9050919050565b60006020820190508181036000830152611834818461161a565b905092915050565b60006020820190506118516000830184611679565b92915050565b600060608201905061186c6000830186611679565b6118796020830185611353565b818103604083015261188b8184611410565b9050949350505050565b60006040820190506118aa6000830185611679565b81810360208301526118bc8184611410565b90509392505050565b60006040820190506118da6000830185611679565b6118e76020830184611679565b9392505050565b60006118f8611909565b90506119048282611aef565b919050565b6000604051905090565b600067ffffffffffffffff82111561192e5761192d611bc7565b5b61193782611bf6565b9050602081019050919050565b6000819050602082019050919050565b600081519050919050565b600081519050919050565b6000602082019050919050565b600082825260208201905092915050565b600081905092915050565b600082825260208201905092915050565b600082825260208201905092915050565b60006119c082611a71565b91506119cb83611a71565b9250827fffffffffffffffffffffffffffffffffffffffffffffffffffffffffffffffff03821115611a00576119ff611b69565b5b828201905092915050565b6000611a1682611a71565b9150611a2183611a71565b925082821015611a3457611a33611b69565b5b828203905092915050565b6000611a4a82611a51565b9050919050565b600073ffffffffffffffffffffffffffffffffffffffff82169050919050565b6000819050919050565b82818337600083830152505050565b60005b83811015611aa8578082015181840152602081019050611a8d565b83811115611ab7576000848401525b50505050565b60006002820490506001821680611ad557607f821691505b60208210811415611ae957611ae8611b98565b5b50919050565b611af882611bf6565b810181811067ffffffffffffffff82111715611b1757611b16611bc7565b5b80604052505050565b6000611b2b82611a71565b91507fffffffffffffffffffffffffffffffffffffffffffffffffffffffffffffffff821415611b5e57611b5d611b69565b5b600182019050919050565b7f4e487b7100000000000000000000000000000000000000000000000000000000600052601160045260246000fd5b7f4e487b7100000000000000000000000000000000000000000000000000000000600052602260045260246000fd5b7f4e487b7100000000000000000000000000000000000000000000000000000000600052604160045260246000fd5b6000601f19601f8301169050919050565b7f536f6369616c4e6574776f726b3a3a73706f6e736f72506f73743a2043616e6e60008201527f6f742073706f6e736f7220796f7572206f776e20706f73740000000000000000602082015250565b7f536f6369616c4e6574776f726b3a3a72657175697265416374697665506f737460008201527f3a20506f7374207761732064656c657465640000000000000000000000000000602082015250565b7f536f6369616c4e6574776f726b3a3a6665746368506f73747352616e6765643a60008201527f20537461727420697320696e2066726f6e74206f66206c617465737420494400602082015250565b7f4f776e61626c653a206e6577206f776e657220697320746865207a65726f206160008201527f6464726573730000000000000000000000000000000000000000000000000000602082015250565b7f536f6369616c4e6574776f726b3a3a73706f6e736f72506f73743a2053706f6e60008201527f736f7220616d6f756e74206d7573742062652067726561746572207468616e2060208201527f3000000000000000000000000000000000000000000000000000000000000000604082015250565b7f536f6369616c4e6574776f726b3a3a73706f6e736f72506f73743a204661696c60008201527f656420746f2073656e6420457468657220746f206f776e657200000000000000602082015250565b7f536f6369616c4e6574776f726b3a3a64656c657465506f73743a204e6f74207460008201527f6865206f776e6572206f6620706f737400000000000000000000000000000000602082015250565b7f4f776e61626c653a2063616c6c6572206973206e6f7420746865206f776e6572600082015250565b50565b7f536f6369616c4e6574776f726b3a3a72657175697265416374697665506f737460008201527f3a20506f737420646f6573206e6f742065786973740000000000000000000000602082015250565b7f536f6369616c4e6574776f726b3a3a637265617465506f73743a2043616e6e6f60008201527f742063726561746520706f737420776974686f75742074657874000000000000602082015250565b611f2981611a3f565b8114611f3457600080fd5b50565b611f4081611a71565b8114611f4b57600080fd5b5056fea2646970667358221220d96318b4e850eb5a9d5167be350aa1b680569f090bac932d3ccacf43c15a17ec64736f6c63430008040033",
  "linkReferences": {},
  "deployedLinkReferences": {}
}